:020000040000FA
:06000000F26AE2EF08F0D5
:020006000000F8
:08000800E9CFDCFFEACFDCFFC9
:10001000E1CFDCFFE2CFDCFF9EAA02D0F7EF04F0D5
:100020009EB20BD09DA804D09EA802D0EEEF05F0A2
:10003000F0A002D030EF06F0FF009E92132A1A2E95
:1000400011D0050E1A6E142A1B2E0CD0140E1B6E26
:10005000152A1C2E07D00A0E1C6E000E162A172217
:1000600018221922DDCFE2FFDDCFE1FFDDCFEAFF6D
:06007000DDCFE9FF1100E5
:0A00760020042E043B044904FFFFA0
:10008000FFFFFFFFFFFFFFFFFFFFFFFFFFFFFFFF80
:10009000FFFFFFFFFFFFFFFFFFFFFFFFFFFFFFFF70
:1000A000FFFFFFFFFFFFFFFFFFFFFFFFFFFFFFFF60
:1000B000FFFFFFFFFFFF2268606A160E626E666830
:1000C0001198120000C0DCFF01C0DCFF02C0DCFFA1
:1000D00003C0DCFF79D860866A0E006E000E016EE8
:1000E0001A0E026E010E036E62EC06F0CBEC06F007
:1000F000DDCF03F0DDCF02F0DDCF01F0DDCF00F08A
:10010000120022C000F03FEC07F011AA02D0F9EC77
:1001100007F02268606A119812001DC022F0CBEC33
:1001200006F044DA11B0FBD7CBEC06F064EC03F038
:10013000F6D700C0DCFFEFA644D0040EEBCF00F0F2
:10014000050EEB500010D8A43CD0010EEBCFE1FF20
:10015000000EEFB4040FE126040EE26EEF9CE750B0
:100160003C0B340AD8B4EF8CEF9AE650030B006EC8
:10017000050E00C0EBFF040EE7CFEBFFE6500010CA
:10018000D8B4EF8AE650EF34060B090FEBCFE5FF4A
:10019000FF0FEBCFE5FF020EEBCFE5FF030EEB50B9
:1001A000E76EE78E010EEFB0030EEFB2020EEF1A0C
:1001B000EF96EFB8EF86EF98EF74060EEB6A010F3B
:1001C000EB6ADDCF00F0120000C0DCFF01C0DCFFF5
:1001D000119811866A6A6B6A6C6A6D6A6E6A6F6AD8
:1001E000706A716A726A736A746A756A766A776A23
:1001F000786A796A04EE00F0200E006EEE6A002E36
:10020000FDD70401380E206F000E216F080E226FFB
:10021000236B246B256B560E286F040E296F5E0E20
:100220002A6F040E2B6F660E2C6F040E2D6F180EA6
:100230002E6F2F6B080E306F080E316F326B336BE1
:10024000346B6E0E356F040E366F760E376F040EFC
:10025000386F7E0E396F040E3A6F380E3B6F100EFA
:100260003C6F400E3D6F3E6B3F6B406B860E436FA5
:10027000040E446FC60E456F040E466F060E476FA0
:10028000050E486F180E496F020E4A6F180E4B6F1D
:10029000400E4C6F4D6B4E6B4F6B460E506F050E04
:1002A000516F860E526F050E536FC60E546F050EBA
:1002B000556F04EE20F03DDF3CDF636A656A646AD7
:1002C000608CE90E60166086609C65A602D065961B
:1002D000FCD7160E6A6E1182DDCF01F0DDCF00F083
:1002E00012000401380E3B6F100E3C6F400E3D6F44
:1002F0003E6B3F6B406B860E436F040E446FC60E21
:10030000456F040E466F060E476F050E486F180EB8
:10031000496F020E4A6F180E4B6F400E4C6F4D6BBB
:100320004E6B4F6B460E506F050E516F860E526F1F
:10033000050E536FC60E546F050E556F04EE3BF05D
:10034000F8DEF7DE160E6A6E1E0E6B6E1188120056
:1003500000C0DCFFEFA64CD0EFBE4AD0050EEBCFBD
:1003600000F0060EEB500012D8A406D0010EEBB43C
:1003700002D0EFAC3DD0EF9C020EEBCFE1FF030EBD
:10038000EFB4040FE126040EE26EEF34060B080F03
:10039000EBCFE5FFFF0FEBCFE5FF050EEBCFE5FF62
:1003A000060EEB500809E76E010EEBB0E78CEB7020
:1003B000E78E010EEBA20AD0EB94030EEBCF00F018
:1003C000050EEB50001A02E1010EEB84010EEFB0B6
:1003D000030EEFB2020EEF1AEF96EFB8EF86EF982A
:1003E000EF74EF9AEFBCEF8A050EEB6A010FEB6A30
:1003F000DDCF00F01200F00E0116030E0112EFAC7B
:1004000008D0060EEB52D8A404D00752EB52D8B451
:100410000184EFBA26D0019201B823D00190EF34C5
:10042000060B080FEBCFE1FF010FEBCFE2FF060E4B
:10043000EB50E126070EEB50E222060EEB2A070EE8
:10044000D8B0EB2A040EEB06EBCF00F0050ED8A0D7
:10045000EB06EB500012E7CF00F0D8A402D0EF8AF1
:1004600068DE120002C0DCFF03C0DCFFF00E0116E4
:10047000030E0112EFBA2ED0019201BAEF8E01B82D
:1004800029D0019001AAEF9EEF34060B070FEBCFA6
:10049000E1FF010FEBCFE2FF050EEB50E126060E68
:1004A000EB50E22200C0E7FF050EEB2AEBCF02F093
:1004B000060ED8B0EB2AEBCF03F0030EEB50021878
:1004C000D8A407D0040EEB500318D8A402D0EF8AAA
:1004D000EF9E3EDFDDCF03F0DDCF02F01200F00E25
:1004E0000116030E0112EFBC14D0019201B811D015
:1004F000EF9E01BC0AD0EFBA08D0050EEB52D8A48B
:1005000007D0060EEB52D8A403D00190EF8CEF8AEF
:100510001FDF120002C0DCFFF00E0116030E0112F5
:10052000050EEBCF02F0060EEB500210D8A407D058
:100530000184EF50180B180AD8B4018609D0EFA631
:1005400007D0019201B804D001900184EF9E00DF32
:10055000DDCF02F0120004EE20F04DD76A801200C9
:1005600004EE2EF07FD704EE2FF0EF90120004EE91
:100570002FF0EF80120004EE2EF0CCD704EE2EF018
:10058000AED704EE3BF037D704EE49F06BD704EE5C
:100590004AF0EF90120004EE4AF0EF80120004EEF1
:1005A00049F0B8D700C069F011841200119065A21B
:1005B00003D01180676A120065A003D0118004DEA9
:1005C000120065A624D061CF00F06596000EF76E8C
:1005D000000EF86E00403E0B760FF66E000EF7220E
:1005E000F8220900F5CFE9FF0800F5BE10D0F5CFDD
:1005F000EAFF1180EF300018020B080ED8A4100E8D
:10060000EF1200B402D095DD1200A2DE120065AC3C
:1006100003D0659C1180120065AA03D0659A1180F1
:10062000120065A803D065981180120065A403D05C
:08063000659411801200120014
:0806380000011C0E926F070E79
:10064000936F000E946F010E916F1200016ABBEC64
:1006500002F001B602D019D8F9D712006098016AE9
:10066000BBEC02F001B402D010D8F9D7B7EC02F01D
:100670001200200E016EB0EC02F001A002D005D8ED
:10068000F8D70001A84BA92B120000C08AF001C0C6
:100690008BF002C08CF003C08DF004C08EF005C05A
:1006A0008FF006C090F0FC041F0B016E0001916FEB
:1006B00000EE92F0FDCFEEFFFECFEEFFFFCFEEFF9C
:1006C0000600012EF7D7120011A202D0119226D0F7
:1006D000000100EE91F09151016E030DF350E926F7
:1006E000014E08D00500ED50FF6EED50FE6EED504E
:1006F000FD6EF6D78AC000F08BC001F08CC002F00E
:100700008DC003F08EC004F08FC005F090C006F0DD
:100710009451FB6E9351FA6E9251F96E0001A66BE3
:10072000A76B11AA03D0F9EC07F0119A080E026E1C
:10073000016AABEC02F001A002D0A7DFF9D701A457
:1007400002D0080E026E00EE9EF002500808E92664
:1007500000C0EFFF022EECD70001A86BA96B000EC2
:10076000FB6E070EFA6E9F510C08D8A023D09F3560
:10077000E834FC0B800FD8B0FA2AD8B0FB2AF96E07
:10078000DAEF03F0DAEF03F0DAEF03F0DAEF03F079
:10079000DAEF03F0BDEF04F021EF04F0DAEF03F03D
:1007A000CCEF04F0C5EF04F0D4EF04F0D1EF04F087
:1007B000DAEF03F06098AEEC02F0B8D74FDF00013B
:1007C0000350A55DD8A006D0D8A408D00250A45DDF
:1007D000D8B004D0A4C002F0A5C003F002500310AA
:1007E000D8B412D004C0F6FF05C0F7FF06C0F8FF6A
:1007F0000800F5CF00F03DDF042A000E0522062296
:100800000206D8A00306EAD70001A451070BD8A41A
:1008100008D0A451A819D8A404D0A551A919D8B4B6
:1008200085D7016ABEEC02F001A280D72EDFF9D78E
:1008300015DF400E016EBEEC02F001A077D725DF78
:10084000F8D70001A151FF0FD8A40DD0A053D8A410
:10085000B1D7740E046E110E056E000E066E120EE8
:10086000026E036AABD7FF0FD8A40DD0A053D8A453
:10087000A1D7860E046E110E056E000E066E200EB8
:10088000026E036A9BD7FF0FD8A494D7A005D8B4F3
:100890005DD0A0510308D8A08DD7A051D8A4FF0FD8
:1008A000E824BE0FF66E110ED8B0010FF76E000EE1
:1008B000D8B0010FF86E0900F5CF04F00800F5CFAD
:1008C00005F0A60E0426110E0522000E066E000E7F
:1008D000062204C0F6FF05C0F7FF06C0F8FF0800B7
:1008E000F5CF02F0036AA051D8B468D7A553D8A4B5
:1008F00005D00250A45DD8A0A4C002F0AFDE025023
:10090000D8B482D7F5CF00F0B4DE024E7DD7030E07
:10091000006EAFDE024E78D7020E0426000E0522CE
:10092000062204C0F6FF05C0F7FF06C0F8FF080066
:10093000F5CF00F09EDE024E67D7006A9ADE024EC7
:1009400063D7042A000E05220622EBD787DED9ECF6
:1009500007F0118A0050026E020F006E8ADE030E4D
:10096000006E87DE025205E00206F0EC07F081DE41
:10097000F9D7F9EC07F0119A47D770DE400EBEECBC
:1009800002F064DEA0C063FFD1D60001A051A66FC3
:10099000006E71EC01F04CD7A6C000F06ADE5EDE9E
:1009A00033D7A0C0A7F044D7A7C000F062DE56DE60
:0209B0002BD743
:0E09B2000101006B016B026B036B0601066B0B
:1009C000076B086B096B00011E6AAB6A240EAC6EE4
:1009D000080EB86E2B0EAF6E000EB06E900EAB6EA2
:1009E0009D8A118E8A84F18AF090F0861200AB50B5
:1009F0000001206EAE501F6EABA202D0AB98AB8848
:100A000020B43BD001010051025D206E0151035919
:100A1000216E2006000E215A04E7FC0E2026020E4D
:100A20002122010E205E000E215A27E601EE04F07D
:100A30000051E9260151EA221FC0EFFFFB0E005DC5
:100A4000020E015905E20029000E0123002B02D0FD
:100A5000006B016B01010251005D206E03510159D1
:100A6000216E04E2FC0E2026020E2122F30E205EEF
:100A7000020E215A01E68A94118C32EF00F001C077
:100A8000DCFF016A01010251005D006E0351015952
:100A9000016E04E2FC0E0026020E01220150D8A4D1
:100AA0000068DDCF01F0120001C0DCFF016A010126
:100AB0000051025D006E01510359016E0006000EE7
:100AC000015A04E7FC0E0026020E01220150D8A4B0
:100AD0000068DDCF01F01200120011BC03D0A5ECBC
:100AE00006F0FBD7010101EE04F00251E9260351A3
:100AF000EA22EFCF00F0FB0E025D020E035905E281
:100B00000229000E0323022B02D0026B036B119CFF
:100B100001010251005D206E03510159216E04E272
:100B2000FC0E2026020E2122010E205E000E215A0C
:100B300001E6118C01010051025D206E0151035943
:100B4000216E2006000E215A04E7FC0E2026020E1C
:100B50002122F40E205E020E215A01E68A84120040
:100B600000011EA003D0A5EC06F0FAD71E801200EB
:100B700000011E90120011BE03D0A5EC06F0FBD7B9
:100B8000060106EE0AF00651E9260751EA2200C0E6
:100B9000EFFFF50E065D010E075905E20629000E6E
:100BA0000723062B02D0066B076B119E0601065128
:100BB000085D206E07510959216E2006000E215A4A
:100BC00004E7F60E2026010E2122010E205E000E03
:100BD000215A01E6118E9D881200120081A23DD09B
:100BE000118E06010851065D206E09510759216ECC
:100BF00004E2F60E2026010E2122010E205E000ED8
:100C0000215A2BE6060106EE0AF00851E9260951A1
:100C1000EA22EFCF1FF0F50E085D010E095905E23B
:100C20000829000E0923082B02D0086B096B00016C
:100C30001F50AD6E06010851065D206E095107591F
:100C4000216E04E2F60E2026010E2122010E205E06
:100C5000000E215A02E632EF00F09D9832EF00F0CC
:100C6000F0909D8832EF00F006010851065D206E7D
:100C700009510759216E04E2F60E2026010E2122A9
:100C8000010E205E000E215A03E6A5EC06F0ECD71B
:100C9000ACB203D0A5EC06F0FBD70000ACA2F8D7AD
:020CA000120040
:0E0CA2001D6A0001C10E656F000E666F010E27
:100CB000E8CFC1F0AA0E676F000E686F000EE8CF94
:100CC000AAF0120000C0DCFF01C0DCFF05C0DCFFA1
:100CD000020E056E10EE65F0E6CFE9FFE6CFEAFF03
:100CE000EF5203E0052EF8D7FF00DDCF05F000C07E
:100CF000E1FF01C0E2FF00C0E6FF01C0E6FF02C065
:100D0000E6FF03C0E6FF04C0E6FF05C0E6FF06C03D
:100D1000E6FF07C0E6FFEE2A000E0006015AE55284
:100D200000C0EEFF01C0EEFF00C0EEFF01C0EEFF0D
:100D3000E1CFEEFFE2CFEEFF02C0EEFF03C0EEFF19
:100D4000DDCF01F0DDCF00F0120008C0DCFF09C0EC
:100D5000DCFF0AC0DCFF0BC0DCFF0CC0DCFF0DC0F9
:100D6000DCFF0EC0DCFF0FC0DCFF10C0DCFF13D8BF
:100D7000DDCF10F0DDCF0FF0DDCF0EF0DDCF0DF0C9
:100D8000DDCF0CF0DDCF0BF0DDCF0AF0DDCF09F0C9
:100D9000DDCF08F0120000C0DCFF01C0DCFF02C0A4
:100DA000DCFF03C0DCFF04C0DCFF05C0DCFF06C0C5
:100DB000DCFF07C0DCFFE9CF00F0EACF01F000EE76
:100DC00065F01D44E926EE50EFCFEAFFE96EFC50D6
:100DD0001F0B026EEE6E00C0EEFF01C0EEFFE1CF12
:100DE000EEFFE2CFEEFFD9CFEEFFDACFEEFFFD5000
:100DF000EE6EFE50EE6E0600022EF9D71D2A1D5033
:100E00000108D8A01D6A00EE65F01D44E926EE50E9
:100E1000EFCFEAFFE96EEF52F1E0EECF01F0EECF57
:100E200002F0EECF03F0F29EFC6AEECFE1FFEECFD0
:100E3000E2FFEECFD9FFEECFDAFFF28E0144FF0FD3
:100E4000E926000EEA220500ED50FE6EED50FD6E23
:100E5000012EF9D702C0E9FF03C0EAFFDDCF07F09A
:100E6000DDCF06F0DDCF05F0DDCF04F0DDCF03F000
:100E7000DDCF02F0DDCF01F0DDCF00F01200005039
:100E80000108D8A00DD000EE65F00044E926EE5030
:100E9000EFCFEAFFE96EEF6A00501D5CD8B4AED721
:100EA000120000EE65F01D44E926EE50EFCFEAFF98
:060EB000E96EEF6AA3D712
:0A0EB60000C0DCFF01C0DCFF016A90
:100EC00001501F0B04E1020E006E48EC08F0006AAE
:100ED000BBEC05F0012EF4D7DDCF01F0DDCF00F043
:100EE000120000C0DCFF0068BBEC05F0200E006EB5
:100EF000BBEC05F0410E006EBBEC05F0020E006E7F
:100F0000BBEC05F0230E006EBBEC05F0DDCF00F06E
:100F100012000001616BCFDFE4DFCBEC06F00001D3
:100F200061B103D061816183128412A40BD0129449
:100F3000C2DF0068BBEC05F061C000F0BBEC05F05F
:100F4000D0DFEBD7000161B30AD0C1EC02F001A001
:100F5000FCD7129211ACE1D76DEC05F0FBD711A6CE
:100F600008D01196129211AC03D06DEC05F0FBD7AE
:100F7000D4D712B207D011AC10D06DEC05F000C080
:100F800060F0128260C000F0016A11BC018AC4ECFA
:100F900002F001B002D01292ECD711AE08D0016A73
:100FA000C1EC02F001B003D0BBEC05F0B6D7B5D769
:100FB000120001C0DCFF02C0DCFF7DEC08F0016A1A
:100FC000026A86EC08F089EC08F000505008D8A0BE
:100FD000006A00C062F0DDCF02F0DDCF01F0120048
:100FE000006A00016253D8B403D0620789EC08F0AC
:100FF000120084EF08F001C0DCFF02C0DCFF7DECD2
:1010000008F0010E016E026A86EC08F00001500E35
:10101000626FDDCF02F0DDCF01F0120000016253FC
:10102000D8B403D0620797EC08F0120000C0DCFFD0
:1010300001C0DCFF02C0DCFF016A026A86EC08F036
:10104000000162515008006E97EC08F0B4EC08F013
:1010500084EC08F0DDCF02F0DDCF01F0DDCF00F051
:0210600012007C
:0E106200136A146A156A166A176A186A196A00
:10107000050E1A6E140E1B6E0A0E1C6EC70EBB6E8A
:10108000750EBA6EBC6A9E929D82F28CF28E120030
:1010900000C0DCFF01C0DCFF00520AE013C001F019
:1010A000A5EC06F013500118FBE0012A002EFAD738
:1010B000DDCF01F0DDCF00F0120000C0DCFF01C089
:1010C000DCFF02C0DCFF13C002F0005001100AE098
:1010D000A5EC06F013500218F8E0022A0006000EF4
:1010E000015AF3D7DDCF02F0DDCF01F0DDCF00F004
:0210F0001200EC
:0E10F2000001636B1290120012A003D0A5EC57
:1011000006F0FBD7128012001290120001C063F0AB
:101110001200A6A203D0A5EC06F0FBD763C0A9FF7E
:10112000A66AA6800001632BA8CF00F0120001C0C0
:10113000DCFFA6A203D0A5EC06F0FBD763C0A9FF95
:1011400000C0A8FFA66AA684F2CF01F0F29E550E59
:10115000A76EAA0EA76EA682000001BEF28E000145
:10116000632BDDCF01F01200A6A203D0A5EC06F0A0
:04117000FBD7120097
:0C11740012011001FF00FF08C016D10599
:101180000200020300010902200001010080190988
:1011900004000002FF00FF000705010240000107F4
:1011A0000581024000010403090412034A6F7761BC
:1011B00020555341120353656E7472792035000037
:0411C00004000E0019
:0C11C400800EF16EF06A9D6AA06AA36ABA
:1011D0009E6AA16AA46A9F6AA26AA56AD09E116AE1
:1011E000126A24EC09F005EC09F051EC06F0D9EC98
:1011F00004F079EC08F0D8EC07F05BEC00F027EC99
:0A12000009F031EC08F01AEF09F0D4
:06120A00C26AFF0EC16E76
:101210000F015B6B5C6B5D6BF19E896A926A020EDB
:10122000856E8A6A020E936E400E8B6E800E946EEF
:04123000846A1200BA
:0C123400F40E006E010E016E5DEC08F07F
:0812400062EC00F089EF07F0F9
:0612480020EE3FF0120051
:02124E0012008C
:020000040030CA
:0E000000E632E6FCFFFF9BFFFFFFFFDFFFFF86
:0200000400F00A
:100000000D4A6F77612053656E7472792035FFFF5A
:10001000FFFFFFFFFFFFFFFFFFFFFFFFFFFFFFFFF0
:10002000FFFFFFFFFFFFFFFFFFFFFFFFFFFFFFFFE0
:10003000FFFFFFFFFFFFFFFFFFFFFFFFFFFFFFFFD0
:10004000FFFFFFFFFFFFFFFFFFFFFFFFFFFFFFFFC0
:01005000FFB0
:00000001FF
